{
  "contractName": "ItemPurchaseShop",
  "abi": [
    {
      "inputs": [
        {
          "internalType": "contract IERC20",
          "name": "acceptedToken",
          "type": "address"
        }
      ],
      "stateMutability": "nonpayable",
      "type": "constructor"
    },
    {
      "anonymous": false,
      "inputs": [
        {
          "indexed": false,
          "internalType": "address",
          "name": "_from",
          "type": "address"
        },
        {
          "indexed": false,
          "internalType": "uint256",
          "name": "_item_id",
          "type": "uint256"
        },
        {
          "indexed": false,
          "internalType": "uint256",
          "name": "_amount",
          "type": "uint256"
        }
      ],
      "name": "Purchase",
      "type": "event"
    },
    {
      "anonymous": false,
      "inputs": [
        {
          "indexed": false,
          "internalType": "contract IERC20",
          "name": "_token",
          "type": "address"
        }
      ],
      "name": "TokenSet",
      "type": "event"
    },
    {
      "inputs": [],
      "name": "getAcceptedToken",
      "outputs": [
        {
          "internalType": "contract IERC20",
          "name": "",
          "type": "address"
        }
      ],
      "stateMutability": "view",
      "type": "function",
      "constant": true
    },
    {
      "inputs": [
        {
          "internalType": "address",
          "name": "user",
          "type": "address"
        }
      ],
      "name": "getTotalNumOfOrders",
      "outputs": [
        {
          "internalType": "uint256",
          "name": "",
          "type": "uint256"
        }
      ],
      "stateMutability": "view",
      "type": "function",
      "constant": true
    },
    {
      "inputs": [
        {
          "internalType": "address",
          "name": "user",
          "type": "address"
        },
        {
          "internalType": "uint256",
          "name": "index",
          "type": "uint256"
        }
      ],
      "name": "getPurchaseItemAtIndex",
      "outputs": [
        {
          "internalType": "uint256",
          "name": "",
          "type": "uint256"
        }
      ],
      "stateMutability": "view",
      "type": "function",
      "constant": true
    },
    {
      "inputs": [
        {
          "internalType": "uint256",
          "name": "item_id",
          "type": "uint256"
        },
        {
          "internalType": "contract IERC20",
          "name": "token",
          "type": "address"
        },
        {
          "internalType": "uint256",
          "name": "amount",
          "type": "uint256"
        }
      ],
      "name": "purchase",
      "outputs": [],
      "stateMutability": "nonpayable",
      "type": "function"
    }
  ],
  "bytecode": "0x60806040523480156200001157600080fd5b5060405162000daa38038062000daa833981810160405281019062000037919062000176565b336000806101000a81548173ffffffffffffffffffffffffffffffffffffffff021916908373ffffffffffffffffffffffffffffffffffffffff16021790555080600160006101000a81548173ffffffffffffffffffffffffffffffffffffffff021916908373ffffffffffffffffffffffffffffffffffffffff1602179055507fa07c91c183e42229e705a9795a1c06d76528b673788b849597364528c96eefb781604051620000e9919062000213565b60405180910390a15062000230565b600080fd5b600073ffffffffffffffffffffffffffffffffffffffff82169050919050565b60006200012a82620000fd565b9050919050565b60006200013e826200011d565b9050919050565b620001508162000131565b81146200015c57600080fd5b50565b600081519050620001708162000145565b92915050565b6000602082840312156200018f576200018e620000f8565b5b60006200019f848285016200015f565b91505092915050565b6000819050919050565b6000620001d3620001cd620001c784620000fd565b620001a8565b620000fd565b9050919050565b6000620001e782620001b2565b9050919050565b6000620001fb82620001da565b9050919050565b6200020d81620001ee565b82525050565b60006020820190506200022a600083018462000202565b92915050565b610b6a80620002406000396000f3fe608060405234801561001057600080fd5b506004361061004c5760003560e01c806361a6a46914610051578063650e5d6d14610081578063721c27271461009d578063a18f4ba0146100cd575b600080fd5b61006b6004803603810190610066919061067d565b6100eb565b60405161007891906106cc565b60405180910390f35b61009b60048036038101906100969190610725565b610278565b005b6100b760048036038101906100b29190610778565b6104e2565b6040516100c491906106cc565b60405180910390f35b6100d56105ba565b6040516100e29190610804565b60405180910390f35b60008060009054906101000a900473ffffffffffffffffffffffffffffffffffffffff1673ffffffffffffffffffffffffffffffffffffffff163373ffffffffffffffffffffffffffffffffffffffff161461017c576040517f08c379a0000000000000000000000000000000000000000000000000000000008152600401610173906108a2565b60405180910390fd5b600260008473ffffffffffffffffffffffffffffffffffffffff1673ffffffffffffffffffffffffffffffffffffffff16815260200190815260200160002080549050821115610201576040517f08c379a00000000000000000000000000000000000000000000000000000000081526004016101f890610934565b60405180910390fd5b600260008473ffffffffffffffffffffffffffffffffffffffff1673ffffffffffffffffffffffffffffffffffffffff16815260200190815260200160002060018361024d9190610983565b8154811061025e5761025d6109b7565b5b906000526020600020906002020160000154905092915050565b600160009054906101000a900473ffffffffffffffffffffffffffffffffffffffff1673ffffffffffffffffffffffffffffffffffffffff168273ffffffffffffffffffffffffffffffffffffffff1614610308576040517f08c379a00000000000000000000000000000000000000000000000000000000081526004016102ff90610a32565b60405180910390fd5b8173ffffffffffffffffffffffffffffffffffffffff166323b872dd3330846040518463ffffffff1660e01b815260040161034593929190610a61565b6020604051808303816000875af1158015610364573d6000803e3d6000fd5b505050506040513d601f19601f820116820180604052508101906103889190610ad0565b50600260003373ffffffffffffffffffffffffffffffffffffffff1673ffffffffffffffffffffffffffffffffffffffff168152602001908152602001600020604051806040016040528085815260200183815250908060018154018082558091505060019003906000526020600020906002020160009091909190915060008201518160000155602082015181600101555050600260003373ffffffffffffffffffffffffffffffffffffffff1673ffffffffffffffffffffffffffffffffffffffff16815260200190815260200160002080549050600360003373ffffffffffffffffffffffffffffffffffffffff1673ffffffffffffffffffffffffffffffffffffffff168152602001908152602001600020819055507f12cb4648cf3058b17ceeb33e579f8b0bc269fe0843f3900b8e24b6c54871703c3384836040516104d593929190610afd565b60405180910390a1505050565b60008060009054906101000a900473ffffffffffffffffffffffffffffffffffffffff1673ffffffffffffffffffffffffffffffffffffffff163373ffffffffffffffffffffffffffffffffffffffff1614610573576040517f08c379a000000000000000000000000000000000000000000000000000000000815260040161056a906108a2565b60405180910390fd5b600360008373ffffffffffffffffffffffffffffffffffffffff1673ffffffffffffffffffffffffffffffffffffffff168152602001908152602001600020549050919050565b6000600160009054906101000a900473ffffffffffffffffffffffffffffffffffffffff16905090565b600080fd5b600073ffffffffffffffffffffffffffffffffffffffff82169050919050565b6000610614826105e9565b9050919050565b61062481610609565b811461062f57600080fd5b50565b6000813590506106418161061b565b92915050565b6000819050919050565b61065a81610647565b811461066557600080fd5b50565b60008135905061067781610651565b92915050565b60008060408385031215610694576106936105e4565b5b60006106a285828601610632565b92505060206106b385828601610668565b9150509250929050565b6106c681610647565b82525050565b60006020820190506106e160008301846106bd565b92915050565b60006106f282610609565b9050919050565b610702816106e7565b811461070d57600080fd5b50565b60008135905061071f816106f9565b92915050565b60008060006060848603121561073e5761073d6105e4565b5b600061074c86828701610668565b935050602061075d86828701610710565b925050604061076e86828701610668565b9150509250925092565b60006020828403121561078e5761078d6105e4565b5b600061079c84828501610632565b91505092915050565b6000819050919050565b60006107ca6107c56107c0846105e9565b6107a5565b6105e9565b9050919050565b60006107dc826107af565b9050919050565b60006107ee826107d1565b9050919050565b6107fe816107e3565b82525050565b600060208201905061081960008301846107f5565b92915050565b600082825260208201905092915050565b7f4f6e6c79206f776e65722063616e20616363657373207468697320696e666f7260008201527f6d6174696f6e0000000000000000000000000000000000000000000000000000602082015250565b600061088c60268361081f565b915061089782610830565b604082019050919050565b600060208201905081810360008301526108bb8161087f565b9050919050565b7f746865207573657220646f6573206e6f7420686176652074686973206e756d6260008201527f6572206f66206f72646572730000000000000000000000000000000000000000602082015250565b600061091e602c8361081f565b9150610929826108c2565b604082019050919050565b6000602082019050818103600083015261094d81610911565b9050919050565b7f4e487b7100000000000000000000000000000000000000000000000000000000600052601160045260246000fd5b600061098e82610647565b915061099983610647565b9250828210156109ac576109ab610954565b5b828203905092915050565b7f4e487b7100000000000000000000000000000000000000000000000000000000600052603260045260246000fd5b7f696c6c6567616c207061796d656e7420746f6b656e0000000000000000000000600082015250565b6000610a1c60158361081f565b9150610a27826109e6565b602082019050919050565b60006020820190508181036000830152610a4b81610a0f565b9050919050565b610a5b81610609565b82525050565b6000606082019050610a766000830186610a52565b610a836020830185610a52565b610a9060408301846106bd565b949350505050565b60008115159050919050565b610aad81610a98565b8114610ab857600080fd5b50565b600081519050610aca81610aa4565b92915050565b600060208284031215610ae657610ae56105e4565b5b6000610af484828501610abb565b91505092915050565b6000606082019050610b126000830186610a52565b610b1f60208301856106bd565b610b2c60408301846106bd565b94935050505056fea2646970667358221220d76c487a9eca3f6e8edecf2bd6fafd1d0fb1a1768e990db22198ef5b4ae448aa64736f6c634300080f0033",
  "immutableReferences": {},
  "source": "pragma solidity >=0.4.21;\n\nimport \"@openzeppelin/contracts/token/ERC20/utils/SafeERC20.sol\";\n\ncontract ItemPurchaseShop {\n    struct PurchasedItem {\n\tuint item_id;\n\tuint price_paid;\n    }\n    address private _owner;\n    IERC20 private _acceptedToken;\n    mapping(address => PurchasedItem[]) orders;\n    mapping(address => uint) numOfOrders;\n\n    event Purchase(address _from, uint _item_id, uint _amount);\n    event TokenSet(IERC20 _token);\n\n\n    constructor(IERC20 acceptedToken) {\n    \t_owner = msg.sender;\n        _acceptedToken = acceptedToken;\n        emit TokenSet(acceptedToken);\n    }\n\n    function getAcceptedToken() view public returns (IERC20) {\n        return _acceptedToken;\n    }\n\n    function getTotalNumOfOrders(address user) view public returns (uint) {\n        require(msg.sender == _owner, \"Only owner can access this information\");\n\t    return numOfOrders[user];\n    }\n\n    function getPurchaseItemAtIndex(address user, uint index) view public returns (uint) {\n        require(msg.sender == _owner, \"Only owner can access this information\");\n    \trequire(index <= orders[user].length, \"the user does not have this number of orders\");\n\t    return orders[user][index - 1].item_id;\n    }\n    \n    function purchase(uint item_id, IERC20 token, uint amount) public {\n        require(token == _acceptedToken, \"illegal payment token\");\n    \ttoken.transferFrom(msg.sender, address(this), amount);\n    \torders[msg.sender].push(PurchasedItem(item_id, amount));\n    \tnumOfOrders[msg.sender] = orders[msg.sender].length;\n        emit Purchase(msg.sender, item_id, amount);\n    }    \n}\n",
  "sourcePath": "/Users/jameszheng/Documents/Oasis/demo/CFT_ROSE_DEMO/contracts/ItemPurchaseShop.sol",
  "compiler": {
    "name": "solc",
    "version": "0.8.15+commit.e14f2714.Emscripten.clang"
  },
  "schemaVersion": "3.4.10",
  "updatedAt": "2022-09-21T16:31:37.040Z",
  "networkType": "ethereum",
  "devdoc": {
    "kind": "dev",
    "methods": {},
    "version": 1
  },
  "userdoc": {
    "kind": "user",
    "methods": {},
    "version": 1
  }
}